:100000000C9438010C9470010C9470010C947001E4
:100010000C9470010C9470010C9470010C9470019C
:100020000C9470010C9470010C94C5130C949D14E5
:100030000C947A130C9470010C9470010C94700160
:100040000C9470010C9470010C9470010C9470016C
:100050000C9470010C94A1130C9470010C94700119
:100060000C9470010C9470010C9470010C9470014C
:100070000C9470010C9470010C9470010C9470013C
:100080000C9470010C9470010C9470010C9470012C
:100090000C9470010C9470010C9470010C9470011C
:1000A0000C9470010C9470010C9470010650FF0ABE
:1000B000564CA10185501500250175019540050A92
:1000C0001900293F8102C005010906A1018501052A
:1000D0000719E029E71500250195087501810295AA
:1000E00001750881010507190029FF150026FF0089
:1000F0009506750881000508190129059505750102
:100100009102950175039101C005010980A1018546
:100110000319012AB700150126B700950175108152
:1001200000C0050C0901A101850419012AA00215CE
:100130000126A002950175108100C005010906A1E4
:10014000018506050719E029E715002501950875C1
:100150000181020507190029EF1500250195F075A9
:10016000018102050819012905950575019102957E
:100170000175039101C009023B00020100A0FA09C8
:10018000040000010301010009211101000122AF57
:10019000000705830320000109040100010300009A
:1001A00000092111010001221B0007058103200025
:1001B000011201000200000008EDFE3713010001EA
:1001C0000200010E03470065006F007200670069BE
:1001D00000000026036700200048006500610076EB
:1001E000007900200049006E0064007500730074FF
:1001F0000072006900650073000000040309040038
:10020000005A5A5B5A4A5A00004C5A4D5A5D5A00DD
:10021000004E5A4F5A4B5A0000505A515A00000093
:1002200000525A535A00000000545A555A00000018
:10023000000000000000000000585A595A5C5A00A3
:1002400000455A465A485A0000435A445A475A00F1
:1002500000415A425A00000000575A405A0000001C
:10026000005E5A5F5A00000000000000000000001D
:1002700011241FBECFEFDAE0DEBFCDBF04B603FE10
:1002800018C080915F0290916002A0916102B091CC
:1002900062028730904BA740B04B59F410925F0236
:1002A000109260021092610210926202E0E0F8E3A4
:1002B000099511E0A0E0B1E0E2E3FBE202C00590A5
:1002C0000D92A634B107D9F722E0A6E4B1E001C04F
:1002D0001D92AF35B207E1F70E94AD110C94721573
:1002E0000C94000080B38D7880BB81B3826781BBA2
:1002F000089584B1807F84B985B1807F85B93E98A7
:1003000046988AB1837F8AB98BB1837F8BB9089570
:10031000282F9E30A0F5843090F534E0939FC001E3
:100320001124820F911D282F277041E001C0440F36
:100330002A95EAF723E0969587952A95E1F725E037
:10034000289FF001299FF00D1124E952FE4F20E073
:1003500030E070E05191DF011197CB01022E02C015
:10036000969587950A94E2F7817081958527842375
:1003700085278C932F5F3F4F2530310559F708951E
:10038000282F9E3080F5843070F534E0939FC001B3
:100390001124820F911D682F677023E09695879531
:1003A0002A95E1F725E0289FF001299FF00D1124FF
:1003B000E952FE4F40E050E080E0219130E0062E0F
:1003C00002C0369527950A94E2F721703327042E50
:1003D00001C0220F0A94EAF7822B4F5F5F4F45302E
:1003E000510559F7089580E0089590910C019923E3
:1003F000C1F09091FC0197FF14C0E82FE695E695B7
:10040000E695803FF8F4F0E0E85BFE4F877021E06E
:1004100030E001C0220F8A95EAF78281822B828325
:100420000895ABE4B1E0EFEF90E02D91821751F029
:10043000EF3F19F4211101C0E92F9F5F9630A9F712
:10044000EF3F09F408950E2E000CFF0BE85BFE4F02
:100450008383089590910C019923E1F09091FC0120
:1004600097FF18C0E82FE695E695E695803FF0F4F3
:10047000F0E0E85BFE4F877021E030E0A90102C0A8
:10048000440F551F8A95E2F7CA018095928189230E
:1004900082830895EBE4F1E09191891303C0DF01B9
:1004A00011971C9251E0E135F507B1F70895803EB0
:1004B000910509F463C080F58133910509F4A6C064
:1004C000A0F48932910509F49AC08A32910509F4A1
:1004D000A4C08130910509F462C09C012450310907
:1004E000213A310508F054C0089589339105F1F19E
:1004F00082389105D9F18533910509F479C08F3B94
:100500009105C8F4883A910508F0F2C0853A910542
:1005100020F3849790640895843E910509F44BC0BC
:1005200070F4823E9105B9F1833E9105C9F1883E90
:10053000910508F086C0813E910550F130C0863E9D
:10054000910509F443C0873E910509F446C0811521
:1005500022E5920708F07CC0811541E5940708F474
:1005600063C0982F8827816F906A08952091FC01BD
:1005700023702223A1F080EE90E008952091FC01E9
:1005800020FD09C13091FD0130FF09C024FF06C1E3
:1005900080E090E004C02091FC0122FDF7CF089597
:1005A0002091FC0122FDFDC03091FD0130FDE3CF23
:1005B00024FFF5CFEDCF2091FD0121FFF0CF8091F9
:1005C000FC0184FDE5CF87EE90E008952091FC01C9
:1005D00023FFE5CF24FDDCCFF6CF2091FC0123FDE6
:1005E000E3C03091FD0131FFE3CF84EE90E0089548
:1005F0002091FC0125FFD3CF89E290E0089520915E
:10060000FC0125FFCCCF85E390E008952091FC010B
:1006100026FFC5CF8AE290E008952091FC0126FFD5
:10062000BECF81E390E00895811560E5960708F05C
:100630006AC0811570E4970708F479CF9F70906ABB
:1006400008959C013A9521153F4108F0A1CF0895E6
:10065000811569E5960738F5811578E5970708F063
:100660007BC0811523E5920708F46CC09C013355CB
:100670002F3F310511F008F08BCF282F26952695B6
:1006800070E2279F900111248370992741E050E088
:10069000BA0102C0660F771F8A95E2F7CB01822B61
:1006A000932B9A6808959C0139552F3F310511F01D
:1006B00008F06ECF382F5091FC014091FD01417040
:1006C00052FF5AC0282F2870222309F44AC03770DD
:1006D000232F2460411157C054FD277E34E09695A6
:1006E00087953A95E1F78F70982F822F906908953A
:1006F000885AE82FF0E0EE0FFF1FE85EFE4F808182
:100700009181946408959C0164E0369527956A95DB
:10071000E1F7922F9370282F26952695237040E2BB
:10072000249F90011124392B837041E050E0BA01DD
:1007300002C0660F771F8A95E2F7CB01822B932BBD
:100740009C680895282F2695269570E2279F900192
:10075000112483709927E9CF982F8827806F906A9A
:10076000089582FF09C03B70232F2860442309F4B9
:10077000B3CF277F2160B0CF232F2F70442309F4FC
:10078000ABCF33FDF6CF322F3171313009F0A4CF2A
:100790002E7F2860A1CF89E390E0089583EE90E05A
:1007A000089582EE90E0089586EE90E008957E3000
:1007B000B0F46430A0F4E72FF0E09EE0899FE00DF4
:1007C000F11D1124EE0FFF1FEE0FFF1FE60FF11DAD
:1007D000EE0FFF1FE150FE4F85919491089580E048
:1007E00090E00895A0E0B0E0E8EFF3E00C94F51499
:1007F0008C01C0900502D0900602E0900702F090B4
:1008000008028091010290910202A0910302B0912E
:100810000402C82AD92AEA2AFB2ACFE1D0E0D7016C
:10082000C6010C2E04C0B695A795979587950A9496
:10083000D2F780FD09C0219790F7B12C8B2DCDB751
:10084000DEB7E9E00C941115BC2EB8018C2F0E9484
:10085000D7030E945702019771F3F0CF0F931F93B4
:10086000CF93FC01828100811181882391F066235E
:1008700081F0C8010E94F203C82F682FC8010E94AE
:100880008801B8018C2F0E94D703CF911F910F913F
:100890000895C8010E94C001C82FF3CF80E00895D9
:1008A000E091B501F091B601309729F00190F08107
:1008B000E02D0995089580E0089520919C013091E4
:1008C0009D012817390771F090939D0180939C0139
:1008D000E091B501F091B601309721F00680F781E3
:1008E000E02D0995089520919A0130919B012817D8
:1008F000390771F090939B0180939A01E091B501C3
:10090000F091B601309721F00084F185E02D099532
:1009100008952FB7F8948091A0019091A101A09122
:10092000A201B091A3012FBF08959C014FB7F89485
:100930008091A0019091A101A091A201B091A30189
:100940004FBF821B930B08958091990108950895DC
:100950000895FC019B0180917401909175018617A7
:10096000970740F0672B29F48091E8008E778093F9
:10097000E800C90140E0009741F4411106C08091B0
:10098000E80082FF2FC080E008952091B401222367
:10099000A9F12530A9F12091E80023FD2DC0209177
:1009A000E80022FDECCF2091E80020FFE4CF309159
:1009B000F3002091F200009719F02830310558F02B
:1009C00041E02830310509F040E02091E8002E7721
:1009D0002093E800D0CF41914093F10001972F5F21
:1009E0003F4FE9CF8091B401882341F0853041F039
:1009F0008091E80083FFC3CF81E0089582E00895ED
:100A000083E0089580916E0187FF13C08091E80014
:100A100082FF06C08091E8008B778093E80004C0D5
:100A20008091B4018111F2CF08958091B40188239F
:100A3000D9F38091E80080FFF8CF8091E8008E77AD
:100A4000ECCF2091E4003091E50095E6A90180917A
:100A5000EC008170882331F08091E80080FF06C0AF
:100A600080E008952091E80022FD1BC08091B40130
:100A7000882391F0853091F08091EB0085FD10C0C6
:100A80002091E4003091E5004217530701F39150A3
:100A90009111DCCF84E0089582E0089583E0089509
:100AA00081E00895E8EDF0E080818E7F80831092F0
:100AB000E2001092DA001092E100A0EEB0E08C911A
:100AC00081608C9380818F77808319BCA7EDB0E023
:100AD0008C918E7F8C9380818F7E808310926D01AC
:100AE0000895EF92FF920F931F93CF938C017B0198
:100AF0000E942105C82F81110EC08091E80085FD5C
:100B000011C08091E8008E778093E8000E94210553
:100B1000882399F3C82F8C2FCF911F910F91FF90AD
:100B2000EF900895F80180818093F100F1E0EF1AD1
:100B3000F108E114F10479F30F5F1F4FDECFCF937B
:100B4000DF938093BB0084E88093BC000E948904FB
:100B5000EC018091BC0087FF0FC02091B900287F75
:100B600081E090E0283211F480E090E09195819549
:100B70009109DF91CF9108950E9489048C1B9D0BF0
:100B8000883E934030F38EEF9FEFF3CFA0E0B0E0CC
:100B9000ECECF5E00C94F714F82E0E9489048C011B
:100BA00084EAE82E94E8D92E1092BC00E092BC00B2
:100BB0000E948904EC018091BC0087FF0DC08091E8
:100BC000B900887F8830E1F08091B900887F80315A
:100BD000B9F0CFEFDFEF08C00E9489048C1B9D0B9A
:100BE000C29748F3CEEFDFEFC8010E949504883E1C
:100BF0009340D0F2CE01CDB7DEB7E7E00C941315E9
:100C0000F092BB00D092BC000E948904EC0180915C
:100C1000BC0087FF0AC02091B900287F283111F05D
:100C20002034B9F6C0E0D0E0E5CF0E9489048C1BE7
:100C30009D0BC29760F3D6CFA0E0B0E0E2E2F6E011
:100C40000C94F714C82F873008F08AC080911601E1
:100C500090911701892B09F08EC080E40E94C6058F
:100C60009093170180931601892B09F077C083E1D7
:100C70000E949F059093170180931601892B09F01C
:100C80006DC081E40E94C605909317018093160100
:100C9000892B09F063C084E88093BC000E9489041A
:100CA0008C018091BC0087FF4BC09091BB00909558
:100CB000109217011092160184E98093BC00EC2F6A
:100CC000F0E0DF01AD5BBD4F6C9169279C93DF01C4
:100CD000AA0FBB1FAA0FBB1FA55FBD4F40E050E08E
:100CE00020E001E010E070E035E0D42E8D91882303
:100CF00009F443C07D01C1E0EC1AF1088150E7011D
:100D00008883EB010D2C02C0D595C7950A94E2F7B4
:100D1000EC2EC0FF03C0ED01219738834F5F5F4F7A
:100D20004430510511F7EF5AFD4F822F80953081E5
:100D300083232923822BCDB7DEB7E7E00C9413156C
:100D40000E948904801B910B883E934008F4A9CF30
:100D50008EEF9FEF909317018093160190E0ACCF38
:100D60009FB18FB1969591708695869586958E7078
:100D7000982B9095A4CF90E0A2CF7801042E02C0CA
:100D8000EE0CFF1C0A94E2F72E29BBCFCF93C82F9D
:100D9000873050F58091160190911701892B11F53C
:100DA00080E40E94C6059093170180931601892B59
:100DB000B1F482E10E949F05909317018093160180
:100DC000892B69F481E090E001C0880FCA95EAF7A9
:100DD00080950E949F05909317018093160184E9E6
:100DE0008093BC00CF9108958B30C1F048F48930D6
:100DF00079F08A3081F0883041F0209A2898F2CF3B
:100E00008C3079F4539A5B98EDCF219A2998EACFE8
:100E1000229A2A98E7CF239A2B98E4CF529A5A988D
:100E2000E1CF3E9A4698DECF982FE42FE270909360
:100E3000E900891308C0762F242F50E0E11111C07A
:100E400091E0980FF4CF7091EC002091ED0050915B
:100E5000F00021FD06C09F5F973049F78093E900BD
:100E600008953091EB003E7F3093EB003091ED0020
:100E70003D7F3093ED003091EB0031603093EB001B
:100E80007093EC002093ED005093F0002091EE0061
:100E900027FDE1CF0895A0E0B0E0E1E5F7E00C9494
:100EA000F614C8EDD0E088818F7E8883E7EDF0E00E
:100EB00080818160808384E082BF81E080936D01C6
:100EC00088818E7F888302EE10E0F80110821092F4
:100ED000DA0081EEC82ED12CF601108288818F773E
:100EE000888388818068888388818F7D888319BC06
:100EF0001092B40110926C0110929F0110926B013C
:100F000090EEE92EF12CF70180818B7F8083888120
:100F10008160888342E060E080E00E941407F6016F
:100F200080818E7F8083F8018081816080838081D1
:100F300088608083F70180818E7F808388818061D3
:100F40008883CDB7DEB7E8E00C94121580E290E01C
:100F5000909317018093160180910902811111C0AD
:100F60001092B9008CE08093B80081E08093090270
:100F70002FEF83ED90E3215080409040E1F700C0D7
:100F8000000080E40E94C60590931701809316012B
:100F9000892B09F040C080E00E949F0590931701C3
:100FA00080931601892BB9F580E80E949F059093E4
:100FB000170180931601892B71F58FEF0E949F0511
:100FC0009093170180931601892B29F584E980936A
:100FD000BC0080E40E94C60590931701809316011F
:100FE000892BC9F48CE00E949F0590931701809390
:100FF0001601892B81F480E80E949F0590931701C8
:1010000080931601892B39F48FEF0E949F059093EE
:1010100017018093160184E98093BC00809116012A
:101020000895CF93DF93EC0180910C01882321F088
:101030008091FC0160E287FF69E083E08093E90032
:101040008FEF9091E80095FD07C095ED9A95F1F727
:10105000000081508111F5CF8091E80085FD03C02B
:10106000DF91CF91089580910C01811116C040E06D
:1010700050E068E070E0CE0101960E947105809119
:10108000E8008E778093E80080E2FE01A9E7B1E0F6
:1010900001900D928A95E1F7E3CF70E040E050E0D7
:1010A000CE01EBCF80937601709378016093770146
:1010B0008091B401843001F583E08093E9008FEFE3
:1010C0009091E80095FD07C095ED9A95F1F7000025
:1010D00081508111F5CF8091E80085FF0DC040E07F
:1010E00050E063E070E086E791E00E947105809136
:1010F000E8008E778093E8000895BC0183E00E94A9
:1011000052080895BC0184E00E945208089580911D
:10111000FF0190910002892B8093490140E250E049
:1011200067EB71E088E491E00E946515892B01F17D
:1011300080E2E8E4F1E0A7EBB1E001900D928A953E
:10114000E1F7E091B501F091B601309789F0809117
:101150000C01882371F08091FC0187FF0AC086E0B2
:10116000809348010280F381E02D88E491E00995A5
:10117000089581E0F5CFCF93C82F8823C9F0823836
:10118000C9F40E94500481FD13C089E30E94F50157
:101190000E9487082FEF31EE84E0215030408040DC
:1011A000E1F700C0000089E30E942A020E9487083C
:1011B000CF9108958338A1F40E94500480FDF8CFA8
:1011C00083E50E94F5010E9487089FEF21EE34E03D
:1011D000915020403040E1F700C0000083E5E4CFAB
:1011E0008438A1F40E94500482FDE2CF87E40E947B
:1011F000F5010E9487088FEF91EE24E08150904026
:101200002040E1F700C0000087E4CECF8CEF8C0FC8
:10121000813A88F580910C01882301F18091FC01CD
:1012200087FF1CC0EC2FE695E695E695F0E0E85BBD
:10123000FE4F828190E04C2F477021E030E002C0E9
:10124000220F331F4A95E2F782239323892B79F0EB
:101250008C2F0E942A020E94870809C0EBE4F1E06B
:101260008191C817A9F331E0E135F307C9F78C2F55
:101270000E94F5019BCF80E28C0F883068F4C77024
:1012800081E090E001C0880FCA95EAF7C091FF01A4
:10129000C82BC093FF018ACF8BE58C0F833038F4C5
:1012A0002C2F2452330BC9010E945D0481CFC85AF0
:1012B000C73108F07DCFEC2FF0E0EE0FFF1FE85EA6
:1012C000FE4F808191810E94730472CF882309F4BC
:1012D00054C0823879F40E94500481FF4EC089E3E3
:1012E0000E94F5010E94870889E30E942A020E9459
:1012F00087080895833859F40E94500480FF3DC048
:1013000083E50E94F5010E94870883E5EECF8438CB
:1013100059F40E94500482FF30C087E40E94F50116
:101320000E94870887E4E1CF9CEF980F913AE8F29A
:1013300090E2980F983088F4877021E030E0A9019E
:1013400002C0440F551F8A95E2F7CA01809590911B
:10135000FF0189238093FF01CACF9BE5980F93304B
:1013600028F480E090E00E945D040895885A873157
:1013700020F480E090E00E9473040895882339F0FF
:101380009091FF01892B8093FF010E9487080895A7
:10139000882341F080959091FF0189238093FF017C
:1013A0000E94870808950F931F93CF93DF93C62F52
:1013B000D42F122F8823A9F06093FB010E94890487
:1013C0009093690180936801C77081E001C0880F24
:1013D000CA95EAF70E94BE09DF91CF911F910F9144
:1013E00008958091FB01681338C080916801909145
:1013F00069010E949504883C910578F5CD130FC0D2
:10140000812F0E94BB08812F0E946609D77081E05E
:1014100001C0880FDA95EAF70E94C809DDCFC770CE
:1014200001E0802F01C0880FCA95EAF70E94C80921
:1014300080E28D0F883050F48D2F877001C0000F2F
:101440008A95EAF7802F0E94BE09DACF812F0E9489
:10145000BB08812F0E946609BFCFC77081E001C021
:10146000880FCA95EAF7D8CF80E090E00E945D042B
:1014700080E090E00E947304109200020E948708AE
:1014800008951092FF0180910C01882371F08091E2
:10149000FC0187FF0AC0EAE4F1E08EE1DF011D9262
:1014A0008A95E9F70E94340A0895EBE4F1E086E0BA
:1014B000F5CF0F931F93CF93DF93809116019091F7
:1014C0001701892B71F080910A028F5F80930A02C5
:1014D000811107C00E94A60790E0909317018093A6
:1014E000160101E512E0C0E08C2F0E94C606D7E08D
:1014F000DC0F8D2F0E94C6068C2F0E941C06F8015F
:1015000081938F018D2F0E941C06F80186830E9413
:101510007901CF5FC73041F781E0DF91CF911F9113
:101520000F9108950E94410A2FEF84E39CE021501F
:1015300080409040E1F700C0000088E19CE00FB6D9
:10154000F894A895809360000FBE90936000FFCF41
:10155000AAE2B0E0EEEAFAE00C94FB148EE691E029
:10156000FC0101962091F100208321E0863792074B
:10157000B9F780916F01893009F456C0C8F4823000
:1015800009F4B2C0833009F481C0813071F18091D7
:10159000E80083FFE6C080916E0190916F019A3060
:1015A00008F0DFC0E92FF0E0EC58FA4E0C94E61496
:1015B0008A3009F488C08B3051F780916E018132F6
:1015C00031F78091720190917301892B01F780911D
:1015D000E800877F8093E8000E94020580917001F7
:1015E00080930C010E94410AD2CF80916E01813A12
:1015F00071F68091E800877F8093E8008091720106
:1016000090917301892B61F060E080E090E070E0E0
:101610000E94A9048091E8008B778093E800B7CFFF
:1016200060E289E791E0F3CF80916E01813209F0A9
:10163000AECF8091720190917301892B09F0A7CFF1
:101640008091E800877F8093E8008091E80082FF26
:1016500018C09091F3008091F200029731F48091CC
:10166000F100813011F0863021F48091F1008093F7
:1016700099018091E8008B778093E8000E94020531
:1016800086CF8091B4018111E0CF81CF80916E012E
:10169000813A09F07CCF8091720190917301892B7E
:1016A00009F075CF8091E800877F8093E8008091F2
:1016B000E80080FFFCCF80910C018093F1008091C5
:1016C000E8008E77D9CF80916E01813209F05FCF2B
:1016D0008091E800877F8093E8000E940205809156
:1016E000710180936A0153CF80916E01813A09F0B4
:1016F0004ECF8091E800877F8093E8008091E800DA
:1017000080FFFCCF80916A01D8CF803889F0823881
:1017100041F5809172018F70873018F58093E90050
:101720008091EB0085FB882780F91092E90006C0C4
:1017300080916B0190919F01911182609091E800DE
:10174000977F9093E8008093F1001092F1008091D0
:10175000E8008E7723C0811116C08091700181301E
:1017600011F18091E80083FF0AC08091E800877F33
:101770008093E8008091EB0080628093EB00AA9652
:10178000E3E00C941715823061F780917001882393
:1017900089F01092E9008091E800877F8093E8004B
:1017A0000E940205DECF81E0933009F080E0809353
:1017B0009F01EFCF809172018F702FEF280F26309D
:1017C00080F68093E9002091EB0020FFE2CF933078
:1017D00031F48091EB0080628093EB00DACF90913E
:1017E000EB0090619093EB0021E030E0A90102C092
:1017F000440F551F8A95E2F74093EA001092EA00E1
:101800008091EB008860E8CF8111ABCF109170011F
:101810001F778091E3008078812B8093E300809193
:10182000E800877F8093E8000E9402058091E8002D
:1018300080FFFCCF8091E30080688093E30083E029
:10184000111101C082E08093B4018BCF80588230A7
:1018500008F087CF40917001509171014C3D83E0B9
:10186000580799F583E08A838AE289834FB7F89411
:10187000DE01139620E03EE051E2E32FF0E05093CA
:101880005700849120FF03C082958F703F5F8F7057
:101890008A30C8F0895C90E08D939D932F5F24314E
:1018A00061F74FBF8091E800877F8093E8006AE28C
:1018B00070E0CE0101960E94A9048091E8008B7728
:1018C0008093E8004ECF805DE6CF20917201309189
:1018D0007301852F99278330910509F160F48130D8
:1018E000910509F472C0029709F03BCF8BE390E0B9
:1018F000E6E7F1E029C08132910509F45AC08297E8
:1019000009F02FCF2115310509F469C021303105C7
:1019100009F027CF8BE190E0ECEAF0E015C0CA01B6
:1019200099274130B1F18230910509F43AC0892BF1
:1019300009F017CFEBEFF1E0E4918E2F90E0EBEFA1
:10194000F1E0009709F40DCF2091E800277F209364
:10195000E80020917401309175018217930708F413
:101960009C0140E02115310509F03EC041113CC009
:101970008091E80082FDA1CF8091B401882309F411
:101980009CCF853009F499CF8091E80083FFF0CF98
:1019900094CFE3EDF1E0E4918E2F90E0E3EDF1E000
:1019A000D0CFE3ECF1E0E4918E2F90E0E3ECF1E0B6
:1019B000C8CF2115310571F02130310509F0D1CEA4
:1019C00089E090E0E1EAF1E0BFCF82E190E0E1EB75
:1019D000F1E0BACF89E090E0E8E8F1E0B5CF8FEA36
:1019E00090E0E7ECF0E0B0CF8091B401882309F4F7
:1019F00064CF853009F461CF8091E80083FD5DCF2D
:101A00008091E80082FDB4CF8091E80080FFAACFEA
:101A10009091F3008091F2002115310519F0883082
:101A2000910550F041E0089709F040E08091E8000E
:101A30008E778093E80096CF44914093F1003196E1
:101A4000215031090196E8CF803809F08ACE809183
:101A5000E800877F8093E80080916C018093F1001B
:101A600076CE81117ECE10917001123008F079CEC1
:101A70008091E800877F8093E80010936C010E94BA
:101A80000205112381F084E08093B40142E261EC0D
:101A900083E00E94140742E161EC81E00E94140798
:101AA0008091B4015ECE8091E30087FDECCF81E0B0
:101AB000EBCF609301027093020280930302909334
:101AC00004020E94340A089560930502709306028E
:101AD00080930702909308020E94340A089568EEEA
:101AE0007EEF80E090E00E944F1560E082E090E0A1
:101AF0000E94311560E083E090E00E943115109261
:101B0000010210920202109203021092040260E09D
:101B100084E090E00E94311564E082E290E00E944F
:101B2000311560E085E090E00E94311560E086E0CC
:101B300090E00E9431156FEF87E090E00E94311530
:101B400040E050E0BA0188E090E00E94431560E078
:101B50008DE090E00E94311540E050E0BA0188E14C
:101B600090E00E94431560E087E190E00E9431150B
:101B700040E050E0BA018CE190E00E94431560E043
:101B800070E080E290E00E944F1540E050E0BA0122
:101B900088E190E00E94431540E050E0BA018FE0F8
:101BA00090E00E94431540E050E0BA0183E190E0EC
:101BB0000E9443150895CF9384E090E00E9423157E
:101BC000C82F82E290E00E942315982F8C2FCF918E
:101BD0000895A5E0B0E0EFEEFDE00C94F2148C0166
:101BE000DC019C9111968C91119713962D913C914B
:101BF000232B09F4A4C089238F3F09F4A0C061E01E
:101C0000C8010E942E0489839A8329813A81205435
:101C10003A45F80182812034310508F46EC0C9804C
:101C2000DA8024EFC2162CE5D20609F495C040F5FF
:101C300049EDC4164CE5D40609F488C028E241E019
:101C40005AEDC5165CE5D50609F482C026E241EEE0
:101C500061EE98EDC9169CE5D90609F47AC08111A8
:101C600087C0C980DA8026E1C2162CE5D20609F5C4
:101C70008091FE01811193C189E20E942A028AC1EA
:101C8000C980DA8026EFC2162CE5D20609F46CC0B2
:101C900027E245EE66EE37EFC3163CE5D30609F4BE
:101CA00058C045EFC4164CE5D40609F459C081115B
:101CB00082C0D801ED90FC90C7010E94C0018983C9
:101CC000B70189810E94D7030E9457028D83D801F2
:101CD00012968C91292F22952F70283009F440C23A
:101CE00008F0B2C1223008F4D7C1243009F41BC275
:101CF00060E0C8010E942E0422C059815054E52F93
:101D0000E695E695E695EF5FF0E0E35FFE4F9081A4
:101D1000A52FB0E0A095B095A770BB27BA83A98383
:101D200021E030E0098002C0220F331F0A94E2F75D
:101D3000882349F0922B908381E08093FA012596C5
:101D4000ECE00C940E1520959223F5CF27E245EE9A
:101D500065EE0E94D309F3CF26E241EE60EEF9CFA3
:101D600027E245EE64EEF5CF26E241EE62EEF1CFDA
:101D70001092FB01C980DA8026E1C2162CE5D2065A
:101D800008F44FC089819A818B5F9C45099708F0C0
:101D9000ECC00E94DB0D9093FD018093FC01E98172
:101DA000FA81EC5FFC45E830F10508F061C0E258CB
:101DB000FA4E0C94E6141092FB01C980DA8022E6F8
:101DC000C2162DE5D20691F0E8F2C980DA8026EA43
:101DD000C2162DE5D20609F0EFC00E94DB0D9093EC
:101DE000FD01809580FB809580F908C00E94DB0D85
:101DF0009093FD01809584FB809584F98093FC018C
:101E00006091FC01C090FD01C98284E090E00E94D5
:101E10003115698182E290E00E9431150E94410AE9
:101E20008ECFC980DA8022E0C2162CE5D20608F4F3
:101E3000D6C00E94DB0D9093FD018093FC01F6015A
:101E4000E350FC458091FC018160E331F105B0F67F
:101E5000EA57FA4E0C94E6148091FC018260CECFD2
:101E60008091FC018460CACF8091FC018860C6CF5C
:101E70008091FD0181608093FD01C2CF8091FD01C1
:101E80008260F9CF8091FC018061B8CF8091FC0124
:101E90008062B4CF8091FC018064B0CF0E94410A7F
:101EA0008091FC018068AACF8091FC018C60A6CF54
:101EB0008091FD018360DFCF8091FC018E7F9ECFFA
:101EC0008091FC018D7F9ACF8091FC018B7F96CF12
:101ED0008091FC01877F92CF8091FD018E7FCBCFD7
:101EE0008091FD018D7FC7CF8091FC018F7E86CFD1
:101EF0008091FC018F7D82CF8091FC018F7B7ECF12
:101F00000E94410A8091FC018F7778CF8091FC017B
:101F1000837F74CF8091FD018C7FADCF8091FC01D8
:101F200082FB992790F921E0922790FB82F990FBA0
:101F300083F964CF8091FD01982F909591708E7FE9
:101F4000892B90FB81F997CF0E94410A9091FC0167
:101F5000892F97FB87F9805851CF61E08EE090E0A0
:101F60000E9431154DCF60E0F9CFE980FA8026E17B
:101F7000E2162CE5F206A9F48091FF018A7A91E03D
:101F8000811101C090E09093FE01882331F085E338
:101F90000E94F5010E948708D2CE89E2F9CF85E33D
:101FA0006CCEC980DA802FEDC2162CE5D20659F42A
:101FB0000E946F0D0E94920AC980DA8028EAC21638
:101FC0002DE5D206B9F3F801E080F180C7010E9447
:101FD000F2038983682FC7010E94880171CEC980EE
:101FE000DA80C1142CE5D20671F70E94410A3FEF56
:101FF00044E35CE0315040405040E1F700C0000055
:1020000081E08093E00080E28093D8001092C900C4
:102010008FE19EE40197F1F700C0000087E090EBAC
:10202000DC0180935F0290936002A0936102B09301
:10203000620288E19CE00FB6F894A8958093600056
:102040000FBE90936000FFCF293009F051CE9F70F2
:10205000C12CD12C7601C39404C0CC0CDD1CEE1C29
:10206000FF1C9A95D2F7882309F45FC1809105027D
:1020700090910602A0910702B0910802A701960173
:10208000282B392B4A2B5B2BCA01B9010E94640D06
:102090008D810E94BE09D3C0B92FBF70B983903122
:1020A00018F0B295B07FB9838823E9F0C980CC20BD
:1020B00079F08D81805E883018F0DD80D1100CC001
:1020C0008091FF01E9808E298093FF010E9487089B
:1020D0008D810E94BB080CCE80910002F9808F296F
:1020E00080930002F3CF8D810E946609C980CC20C5
:1020F00009F4FECDC094C9828D81805E883018F0CD
:10210000DD80D11009C08091FF01E9808E2180938C
:10211000FF010E948708ECCD80910002F9808F2199
:1021200080930002F6CF292F26952695237022232F
:1021300051F0213009F0DCCD882379F08D81937046
:102140000E947304D5CD882329F08D8193700E945D
:102150005D04CECD80E090E0FACF80E090E0F0CF5B
:10216000292F237021116EC0811169C08D81829544
:1021700086958770880F880F4D814F7050E060E022
:1021800070E0082E04C0440F551F661F771F0A9485
:10219000D2F7CD80C4FE2EC0EFE0CE2ED12CE12CA4
:1021A000F12C04C0CC0CDD1CEE1CFF1C8A95D2F770
:1021B000C094D094E094F094969596959370923054
:1021C00041F19330F9F08090010290900202A090CA
:1021D0000302B0900402913089F04C295D296E29E8
:1021E0007F29DB01CA0188219921AA21BB21BC01D9
:1021F000CD0123C0C12CD12C7601DECF482959292D
:102200006A297B29DB01CA018C299D29AE29BF29B6
:10221000EECF4C295D296E297F2980910102909192
:102220000202A0910302B09104026A017B01C82658
:10223000D926EA26FB26C701B6010E94590D0E9445
:10224000500456CD882309F446C090FFF8CF8D8105
:10225000829586958770880F880F4D814F7050E06A
:1022600060E070E0082E04C0440F551F661F771F02
:102270000A94D2F7CD80C4FE32C03FE0C32ED12CE9
:10228000E12CF12C04C0CC0CDD1CEE1CFF1C8A954B
:10229000D2F7C094D094E094F0949695969593706C
:1022A000923061F1933019F180900502909006020E
:1022B000A0900702B09008029130A9F04C295D2946
:1022C0006E297F29DB01CA0188219921AA21BB211E
:1022D000BC01CD0127C0223008F4B1CFB8CFC12C4A
:1022E000D12C7601DACF482959296A297B29DB01CB
:1022F000CA018C299D29AE29BF29EACF4C295D2925
:102300006E297F298091050290910602A091070213
:10231000B09108026A017B01C826D926EA26FB266D
:10232000C701B6010E94640D8ACF8D810E94C80941
:10233000C094D094E094F0948091050290910602AC
:10234000A0910702B0910802A70196012823392322
:102350004A235B23CA01B901E5CFCDB7DEB7299780
:102360000FB6F894DEBF0FBECDBF85B7806885BFBE
:1023700085B7806885BF84B7877F84BF0FB6F89420
:10238000A895809160008861809360001092600041
:102390000FBE80E890E00FB6F894809361009093B0
:1023A00061000FBE8EE494E0909347018093460154
:1023B0000E9452050E944B078091E2008460809346
:1023C000E20078948091B401882399F08091E9002B
:1023D0001091EC001795112717958F70182B1092FC
:1023E000E9008091E80083FD0E94A80A1F70109305
:1023F000E90082E084BD93E095BD9AEF97BD80939C
:102400006E000E94A60790E090931701809316013A
:102410000E9479010E9472018EE0E1E5F2E0DF01A5
:10242000282F1D922A95E9F7E3E4F2E0DF011D92DF
:102430008A95E9F7EBE0F2E088E3DF011D928A95E7
:10244000E9F73F988AB18F708AB96E98479A8BB135
:10245000806F8BB9769A80E090E00E942B15883EC1
:102460009E4F11F00E946F0D82E090E00E942315B4
:102470008093A4010E94DB0D9093FD018093FC01E9
:1024800083E090E00E942315282F30E040E050E0E8
:102490002E833F8348875987CA01B9010E94590D8D
:1024A0006091FC0160686093FC011091FD0184E083
:1024B00090E00E943115612F82E290E00E94311578
:1024C00080E091E09093B6018093B50168E1E62E3B
:1024D000F12C70E4972EE1E5CE2EE2E0DE2EFEE058
:1024E0008F2EAFE5AA2EA2E0BA2EB0E17B2E80910E
:1024F000B401853041F48091B401853039F10E94F6
:10250000410A0E9450040E94590A882359F08FB74B
:10251000F8944091A0015091A1016091A2017091A5
:10252000A3018FBFE1E5F2E0A5EAB1E000E010E031
:1025300091918D91891709F4C9C08927282F21709D
:10254000522E222309F4BCC0412C60C08091B401FA
:10255000843009F110929E010FB6F894A895E0928C
:1025600060000FBE9092600083B7817F846083BF5C
:1025700083B7816083BF7894889583B78E7F83BF4C
:102580000FB6F894A89580916000886180936000F0
:10259000109260000FBE80919F01882309F4ABCF99
:1025A0000E94A60790E090931701809316010E9465
:1025B00079010E947201D601E82D1D92EA95E9F792
:1025C0000E94590AE1E5F2E08191811104C0AE1642
:1025D000BF06D1F790CF79BC82E189BD09B400FE76
:1025E000FDCF8091D8008F7D8093D8008091E0004E
:1025F00082608093E0008091E00081FDFCCF0E942A
:10260000410A79CF52E0552E44244394692E652027
:1026100033243394611001C0312C0E9489048160FD
:1026200061101092000249820A833B829D838C8351
:10263000CE0101960E94E90DF801EB55FE4F808115
:10264000852580830E9450049091B3018913809363
:10265000B3018091B401843009F049CF8091FA012F
:10266000882309F444CF8091E9001091EC0017957C
:10267000112717958F70182B81E08093E9008091C6
:10268000E80080FF0FC040E050E069E070E08DE0BE
:1026900091E00E9471058091E8008E778093E800B8
:1026A0001092FA011F701093E90021CF34E0532EED
:1026B00042E0442EABCF88E0582E23E0422EA6CF36
:1026C00081FDA0CF82FDF2CF83FDF5CF0F5F1F4FBD
:1026D0000E30110509F02CCF0E9489042FEF2983B9
:1026E0002A831B8281609D838C83CE0101960E9488
:1026F000E90DA8CF1F921FB61F9211248F939F93AD
:10270000AF93BF9380919E01811113C08091A0016E
:102710009091A101A091A201B091A3014196A11DA8
:10272000B11D8093A0019093A101A093A201B09349
:10273000A301BF91AF919F918F911F901FBE1F90DA
:10274000189578941F921FB61F9211248F939F9310
:10275000AF93BF938091A0019091A101A091A2019C
:10276000B091A3010196A11DB11D8093A00190938A
:10277000A101A093A201B093A301BF91AF919F913A
:102780008F911F901FBE1F9018951F920F920FB62A
:102790000F9211242F933F934F935F936F937F93E7
:1027A0008F939F93AF93BF93EF93FF938091E1003B
:1027B00082FF09C08091E20082FF05C08091E100A4
:1027C0008B7F8093E1008091DA0080FF24C08091AC
:1027D000D80080FF20C08091DA008E7F8093DA00DD
:1027E0008091D90080FF9BC080E189BD82E189BDD5
:1027F00009B400FEFDCF81E08093B40180916D01AA
:10280000811109C00E9452050E944B078091E2008D
:1028100084608093E2008091E10080FF17C0809186
:10282000E20080FF13C08091E2008E7F8093E2007F
:102830008091E20080618093E2008091D800806204
:102840008093D80019BC85E08093B4018091E100A9
:1028500084FF29C08091E20084FF25C080E189BD0A
:1028600082E189BD09B400FEFDCF8091D8008F7D43
:102870008093D8008091E1008F7E8093E100809169
:10288000E2008F7E8093E2008091E200816080937D
:10289000E20080916C01882309F447C084E08093B2
:1028A000B4018091B4018091E10083FF27C0809141
:1028B000E20083FF23C08091E100877F8093E100E5
:1028C00082E08093B40110926C018091E1008E7FD0
:1028D0008093E1008091E2008E7F8093E2008091FE
:1028E000E20080618093E20042E060E080E00E94CC
:1028F00014078091F00088608093F000FF91EF91C1
:10290000BF91AF919F918F917F916F915F914F9107
:102910003F912F910F900FBE0F901F90189519BCEB
:102920001092B40110926D0176CF8091E30087FF81
:1029300002C083E0B4CF81E0B2CF1F920F920FB6F6
:102940000F921124FF920F931F932F933F934F9356
:102950005F936F937F938F939F93AF93BF93CF9327
:10296000DF93EF93FF9309EE10E0F8018081C091AF
:10297000EC00C795CC27C7958F70FC2EF82A1082E3
:10298000C0EFD0E08881877F888378940E94A80A6E
:10299000F8011082888188608883CF2DCF70C08332
:1029A000FF91EF91DF91CF91BF91AF919F918F9167
:1029B0007F916F915F914F913F912F911F910F9157
:1029C000FF900F900FBE0F901F901895EE0FFF1FF6
:1029D0000590F491E02D09942F923F924F925F92CF
:1029E0006F927F928F929F92AF92BF92CF92DF921F
:1029F000EF92FF920F931F93CF93DF93CDB7DEB784
:102A0000CA1BDB0B0FB6F894DEBF0FBECDBF099417
:102A10002A88398848885F846E847D848C849B846E
:102A2000AA84B984C884DF80EE80FD800C811B817C
:102A3000AA81B981CE0FD11D0FB6F894DEBF0FBEAB
:102A4000CDBFED010895F999FECF92BD81BDF89AF1
:102A5000992780B50895A8E1B0E042E050E00C94D9
:102A60005715262FF999FECF92BD81BDF89A01978F
:102A700000B4021639F01FBA20BD0FB6F894FA9AC6
:102A8000F99A0FBE08950396272F0E9432150E94CF
:102A90003115252F0E943215242F0C9432150196E2
:102AA000272F0E9432150C943115DC01CB01FC015B
:102AB000F999FECF06C0F2BDE1BDF89A319600B497
:102AC0000D9241505040B8F70895FB01DC0104C05D
:102AD0008D910190801921F441505040C8F7881B16
:102AE000990B0895F894FFCF850BAB0BB10BAB0B93
:102AF000B10B040C260CB10B240D310D3E0F6C0FE5
:102B0000700F580F8A0F9A0FAD0FB30F2C0F300FA5
:102B1000340F420F460F4A0F4E0F540F5C0F600FD9
:102B2000640F680F740F780F7C0F800F860FA40F4F
:022B30008E0F06
:102B3200A4041108A7047D088208A804015000001B
:102B42000000000000002000E200E900EA00B500F9
:102B5200B600B700CD008301CC008A019201940136
:102B62002102230224022502260227022A02B3009E
:062B7200B4006F007000CA
:00000001FF
